{
  "transactions": [
    {
      "hash": "0x5e42fe0e956fec994599c1a39820d1b54c15068675170a1ce98fec51de726142",
      "transactionType": "CALL",
      "contractName": null,
      "contractAddress": "0x1c7d4b196cb0c7b01d743fbc6116a902379c7238",
      "function": "approve(address,uint256)",
      "arguments": [
        "0x69eC52139FB0D71b6BC30F8a64a888A476B7801E",
        "10000000"
      ],
      "transaction": {
        "from": "0x1ac98da771407df719091b94f00a3f5e85a3a7ba",
        "to": "0x1c7d4b196cb0c7b01d743fbc6116a902379c7238",
        "gas": "0x12b1b",
        "value": "0x0",
        "input": "0x095ea7b300000000000000000000000069ec52139fb0d71b6bc30f8a64a888a476b7801e0000000000000000000000000000000000000000000000000000000000989680",
        "nonce": "0x2d",
        "chainId": "0xaa36a7"
      },
      "additionalContracts": [],
      "isFixedGasLimit": false
    },
    {
      "hash": "0xd2e25377ff821a6ccc992c80bcc97821a90f20f428974a0a153244e3c5b6dda0",
      "transactionType": "CALL",
      "contractName": null,
      "contractAddress": "0x69ec52139fb0d71b6bc30f8a64a888a476b7801e",
      "function": "deposit(uint256,address)",
      "arguments": [
        "10000000",
        "0x1AC98Da771407df719091b94f00a3F5e85a3A7bA"
      ],
      "transaction": {
        "from": "0x1ac98da771407df719091b94f00a3f5e85a3a7ba",
        "to": "0x69ec52139fb0d71b6bc30f8a64a888a476b7801e",
        "gas": "0xf43cf",
        "value": "0x0",
        "input": "0x6e553f6500000000000000000000000000000000000000000000000000000000009896800000000000000000000000001ac98da771407df719091b94f00a3f5e85a3a7ba",
        "nonce": "0x2e",
        "chainId": "0xaa36a7"
      },
      "additionalContracts": [],
      "isFixedGasLimit": false
    },
    {
      "hash": "0x0571cff932e60781698b89be9cbcdbcefcf106b5a2057309ea7653090b7920b6",
      "transactionType": "CALL",
      "contractName": null,
      "contractAddress": "0x5591d1125e729fb241d8181a246de6776e5fd918",
      "function": "evaluateAndRebalance()",
      "arguments": [],
      "transaction": {
        "from": "0x1ac98da771407df719091b94f00a3f5e85a3a7ba",
        "to": "0x5591d1125e729fb241d8181a246de6776e5fd918",
        "gas": "0x9e514",
        "value": "0x0",
        "input": "0x8f7b4762",
        "nonce": "0x2f",
        "chainId": "0xaa36a7"
      },
      "additionalContracts": [],
      "isFixedGasLimit": false
    }
  ],
  "receipts": [
    {
      "status": "0x1",
      "cumulativeGasUsed": "0x97b4ce",
      "logs": [
        {
          "address": "0x1c7d4b196cb0c7b01d743fbc6116a902379c7238",
          "topics": [
            "0x8c5be1e5ebec7d5bd14f71427d1e84f3dd0314c0f7b2291e5b200ac8c7c3b925",
            "0x0000000000000000000000001ac98da771407df719091b94f00a3f5e85a3a7ba",
            "0x00000000000000000000000069ec52139fb0d71b6bc30f8a64a888a476b7801e"
          ],
          "data": "0x0000000000000000000000000000000000000000000000000000000000989680",
          "blockHash": "0xe72191bb87134ecc68dd5cf42b95a7808e361f6a3fb8d668ea0ce07bcac1be22",
          "blockNumber": "0x96c899",
          "blockTimestamp": "0x694704e4",
          "transactionHash": "0x5e42fe0e956fec994599c1a39820d1b54c15068675170a1ce98fec51de726142",
          "transactionIndex": "0x3c",
          "logIndex": "0x12a",
          "removed": false
        }
      ],
      "logsBloom": "0x00000000000000000000000000000000000000000000000000000000000200000000000000000000000000000000000000000000000000000000000000200000000000000000000000000000000000000100000000000000000000000000000000000000000000001000000000000000000000000000000000000000400000000000000000100000000000000000000000000000000000000000000000200000020000000000000000000000000000000000000000000000000000000000000000000000000000000000000000000000000000001100000000000000000000000010000000000000000010000000000000000000000000000000000000000000",
      "type": "0x2",
      "transactionHash": "0x5e42fe0e956fec994599c1a39820d1b54c15068675170a1ce98fec51de726142",
      "transactionIndex": "0x3c",
      "blockHash": "0xe72191bb87134ecc68dd5cf42b95a7808e361f6a3fb8d668ea0ce07bcac1be22",
      "blockNumber": "0x96c899",
      "gasUsed": "0xd88d",
      "effectiveGasPrice": "0xf424a",
      "from": "0x1ac98da771407df719091b94f00a3f5e85a3a7ba",
      "to": "0x1c7d4b196cb0c7b01d743fbc6116a902379c7238",
      "contractAddress": null
    },
    {
      "status": "0x1",
      "cumulativeGasUsed": "0xaab382",
      "logs": [
        {
          "address": "0x1c7d4b196cb0c7b01d743fbc6116a902379c7238",
          "topics": [
            "0xddf252ad1be2c89b69c2b068fc378daa952ba7f163c4a11628f55a4df523b3ef",
            "0x0000000000000000000000001ac98da771407df719091b94f00a3f5e85a3a7ba",
            "0x00000000000000000000000069ec52139fb0d71b6bc30f8a64a888a476b7801e"
          ],
          "data": "0x0000000000000000000000000000000000000000000000000000000000989680",
          "blockHash": "0xe72191bb87134ecc68dd5cf42b95a7808e361f6a3fb8d668ea0ce07bcac1be22",
          "blockNumber": "0x96c899",
          "blockTimestamp": "0x694704e4",
          "transactionHash": "0x0571cff932e60781698b89be9cbcdbcefcf106b5a2057309ea7653090b7920b6",
          "transactionIndex": "0x46",
          "logIndex": "0x130",
          "removed": false
        },
        {
          "address": "0x69ec52139fb0d71b6bc30f8a64a888a476b7801e",
          "topics": [
            "0xddf252ad1be2c89b69c2b068fc378daa952ba7f163c4a11628f55a4df523b3ef",
            "0x0000000000000000000000000000000000000000000000000000000000000000",
            "0x0000000000000000000000001ac98da771407df719091b94f00a3f5e85a3a7ba"
          ],
          "data": "0x0000000000000000000000000000000000000000000000000000000000989680",
          "blockHash": "0xe72191bb87134ecc68dd5cf42b95a7808e361f6a3fb8d668ea0ce07bcac1be22",
          "blockNumber": "0x96c899",
          "blockTimestamp": "0x694704e4",
          "transactionHash": "0x0571cff932e60781698b89be9cbcdbcefcf106b5a2057309ea7653090b7920b6",
          "transactionIndex": "0x46",
          "logIndex": "0x131",
          "removed": false
        },
        {
          "address": "0x1c7d4b196cb0c7b01d743fbc6116a902379c7238",
          "topics": [
            "0x8c5be1e5ebec7d5bd14f71427d1e84f3dd0314c0f7b2291e5b200ac8c7c3b925",
            "0x00000000000000000000000069ec52139fb0d71b6bc30f8a64a888a476b7801e",
            "0x000000000000000000000000ffafc09a01a24cbb15801a5ebbce3cc4b40dfb3b"
          ],
          "data": "0x0000000000000000000000000000000000000000000000000000000000989680",
          "blockHash": "0xe72191bb87134ecc68dd5cf42b95a7808e361f6a3fb8d668ea0ce07bcac1be22",
          "blockNumber": "0x96c899",
          "blockTimestamp": "0x694704e4",
          "transactionHash": "0x0571cff932e60781698b89be9cbcdbcefcf106b5a2057309ea7653090b7920b6",
          "transactionIndex": "0x46",
          "logIndex": "0x132",
          "removed": false
        },
        {
          "address": "0x1c7d4b196cb0c7b01d743fbc6116a902379c7238",
          "topics": [
            "0xddf252ad1be2c89b69c2b068fc378daa952ba7f163c4a11628f55a4df523b3ef",
            "0x00000000000000000000000069ec52139fb0d71b6bc30f8a64a888a476b7801e",
            "0x000000000000000000000000ffafc09a01a24cbb15801a5ebbce3cc4b40dfb3b"
          ],
          "data": "0x00000000000000000000000000000000000000000000000000000000006590da",
          "blockHash": "0xe72191bb87134ecc68dd5cf42b95a7808e361f6a3fb8d668ea0ce07bcac1be22",
          "blockNumber": "0x96c899",
          "blockTimestamp": "0x694704e4",
          "transactionHash": "0x0571cff932e60781698b89be9cbcdbcefcf106b5a2057309ea7653090b7920b6",
          "transactionIndex": "0x46",
          "logIndex": "0x133",
          "removed": false
        },
        {
          "address": "0x1c7d4b196cb0c7b01d743fbc6116a902379c7238",
          "topics": [
            "0x8c5be1e5ebec7d5bd14f71427d1e84f3dd0314c0f7b2291e5b200ac8c7c3b925",
            "0x000000000000000000000000ffafc09a01a24cbb15801a5ebbce3cc4b40dfb3b",
            "0x0000000000000000000000009a1fc3ff25083f33373bbf9617e12892ff19e07a"
          ],
          "data": "0x00000000000000000000000000000000000000000000000000000000006590da",
          "blockHash": "0xe72191bb87134ecc68dd5cf42b95a7808e361f6a3fb8d668ea0ce07bcac1be22",
          "blockNumber": "0x96c899",
          "blockTimestamp": "0x694704e4",
          "transactionHash": "0x0571cff932e60781698b89be9cbcdbcefcf106b5a2057309ea7653090b7920b6",
          "transactionIndex": "0x46",
          "logIndex": "0x134",
          "removed": false
        },
        {
          "address": "0x1c7d4b196cb0c7b01d743fbc6116a902379c7238",
          "topics": [
            "0xddf252ad1be2c89b69c2b068fc378daa952ba7f163c4a11628f55a4df523b3ef",
            "0x000000000000000000000000ffafc09a01a24cbb15801a5ebbce3cc4b40dfb3b",
            "0x0000000000000000000000009a1fc3ff25083f33373bbf9617e12892ff19e07a"
          ],
          "data": "0x00000000000000000000000000000000000000000000000000000000006590da",
          "blockHash": "0xe72191bb87134ecc68dd5cf42b95a7808e361f6a3fb8d668ea0ce07bcac1be22",
          "blockNumber": "0x96c899",
          "blockTimestamp": "0x694704e4",
          "transactionHash": "0x0571cff932e60781698b89be9cbcdbcefcf106b5a2057309ea7653090b7920b6",
          "transactionIndex": "0x46",
          "logIndex": "0x135",
          "removed": false
        },
        {
          "address": "0x1c7d4b196cb0c7b01d743fbc6116a902379c7238",
          "topics": [
            "0x8c5be1e5ebec7d5bd14f71427d1e84f3dd0314c0f7b2291e5b200ac8c7c3b925",
            "0x0000000000000000000000009a1fc3ff25083f33373bbf9617e12892ff19e07a",
            "0x000000000000000000000000d011ee229e7459ba1ddd22631ef7bf528d424a14"
          ],
          "data": "0x00000000000000000000000000000000000000000000000000000000006590da",
          "blockHash": "0xe72191bb87134ecc68dd5cf42b95a7808e361f6a3fb8d668ea0ce07bcac1be22",
          "blockNumber": "0x96c899",
          "blockTimestamp": "0x694704e4",
          "transactionHash": "0x0571cff932e60781698b89be9cbcdbcefcf106b5a2057309ea7653090b7920b6",
          "transactionIndex": "0x46",
          "logIndex": "0x136",
          "removed": false
        },
        {
          "address": "0x8c5ddcd3f601c91d1bf51c8ec26066010acaba7c",
          "topics": [
            "0x7120161a7b3d31251e01294ab351ef15a41b91659a36032e4641bb89b121e321",
            "0xffd695adfd08031184633c49ce9296a58ddbddd0d5fed1e65fbe83a0ba43a5dd"
          ],
          "data": "0x00000000000000000000000000000000000000000000000000000000008ba55c0000000000000000000000000000000000000000000000000000000001e3da5f",
          "blockHash": "0xe72191bb87134ecc68dd5cf42b95a7808e361f6a3fb8d668ea0ce07bcac1be22",
          "blockNumber": "0x96c899",
          "blockTimestamp": "0x694704e4",
          "transactionHash": "0x0571cff932e60781698b89be9cbcdbcefcf106b5a2057309ea7653090b7920b6",
          "transactionIndex": "0x46",
          "logIndex": "0x137",
          "removed": false
        },
        {
          "address": "0xd011ee229e7459ba1ddd22631ef7bf528d424a14",
          "topics": [
            "0x9d9bd501d0657d7dfe415f779a620a62b78bc508ddc0891fbbd8b7ac0f8fce87",
            "0xffd695adfd08031184633c49ce9296a58ddbddd0d5fed1e65fbe83a0ba43a5dd"
          ],
          "data": "0x00000000000000000000000000000000000000000000000000000000008ba55c0000000000000000000000000000000000000000000000000000000000000be00000000000000000000000000000000000000000000000000000000000000000",
          "blockHash": "0xe72191bb87134ecc68dd5cf42b95a7808e361f6a3fb8d668ea0ce07bcac1be22",
          "blockNumber": "0x96c899",
          "blockTimestamp": "0x694704e4",
          "transactionHash": "0x0571cff932e60781698b89be9cbcdbcefcf106b5a2057309ea7653090b7920b6",
          "transactionIndex": "0x46",
          "logIndex": "0x138",
          "removed": false
        },
        {
          "address": "0xd011ee229e7459ba1ddd22631ef7bf528d424a14",
          "topics": [
            "0x52acb05cebbd3cd39715469f22afbf5a17496295ef3bc9bb5944056c63ccaa09",
            "0xffd695adfd08031184633c49ce9296a58ddbddd0d5fed1e65fbe83a0ba43a5dd",
            "0x0000000000000000000000009a1fc3ff25083f33373bbf9617e12892ff19e07a",
            "0x0000000000000000000000009a1fc3ff25083f33373bbf9617e12892ff19e07a"
          ],
          "data": "0x00000000000000000000000000000000000000000000000000000000006590da0000000000000000000000000000000000000000000000000000060d4ba53a28",
          "blockHash": "0xe72191bb87134ecc68dd5cf42b95a7808e361f6a3fb8d668ea0ce07bcac1be22",
          "blockNumber": "0x96c899",
          "blockTimestamp": "0x694704e4",
          "transactionHash": "0x0571cff932e60781698b89be9cbcdbcefcf106b5a2057309ea7653090b7920b6",
          "transactionIndex": "0x46",
          "logIndex": "0x139",
          "removed": false
        },
        {
          "address": "0x1c7d4b196cb0c7b01d743fbc6116a902379c7238",
          "topics": [
            "0xddf252ad1be2c89b69c2b068fc378daa952ba7f163c4a11628f55a4df523b3ef",
            "0x0000000000000000000000009a1fc3ff25083f33373bbf9617e12892ff19e07a",
            "0x000000000000000000000000d011ee229e7459ba1ddd22631ef7bf528d424a14"
          ],
          "data": "0x00000000000000000000000000000000000000000000000000000000006590da",
          "blockHash": "0xe72191bb87134ecc68dd5cf42b95a7808e361f6a3fb8d668ea0ce07bcac1be22",
          "blockNumber": "0x96c899",
          "blockTimestamp": "0x694704e4",
          "transactionHash": "0x0571cff932e60781698b89be9cbcdbcefcf106b5a2057309ea7653090b7920b6",
          "transactionIndex": "0x46",
          "logIndex": "0x13a",
          "removed": false
        },
        {
          "address": "0x9a1fc3ff25083f33373bbf9617e12892ff19e07a",
          "topics": [
            "0xdcbc1c05240f31ff3ad067ef1ee35ce4997762752e3a095284754544f4c709d7",
            "0x000000000000000000000000ffafc09a01a24cbb15801a5ebbce3cc4b40dfb3b",
            "0x000000000000000000000000ffafc09a01a24cbb15801a5ebbce3cc4b40dfb3b"
          ],
          "data": "0x00000000000000000000000000000000000000000000000000000000006590da000000000000000000000000000000000000000000000000000000000200eb8c",
          "blockHash": "0xe72191bb87134ecc68dd5cf42b95a7808e361f6a3fb8d668ea0ce07bcac1be22",
          "blockNumber": "0x96c899",
          "blockTimestamp": "0x694704e4",
          "transactionHash": "0x0571cff932e60781698b89be9cbcdbcefcf106b5a2057309ea7653090b7920b6",
          "transactionIndex": "0x46",
          "logIndex": "0x13b",
          "removed": false
        },
        {
          "address": "0x9a1fc3ff25083f33373bbf9617e12892ff19e07a",
          "topics": [
            "0xddf252ad1be2c89b69c2b068fc378daa952ba7f163c4a11628f55a4df523b3ef",
            "0x0000000000000000000000000000000000000000000000000000000000000000",
            "0x000000000000000000000000ffafc09a01a24cbb15801a5ebbce3cc4b40dfb3b"
          ],
          "data": "0x000000000000000000000000000000000000000000000000000000000200eb8c",
          "blockHash": "0xe72191bb87134ecc68dd5cf42b95a7808e361f6a3fb8d668ea0ce07bcac1be22",
          "blockNumber": "0x96c899",
          "blockTimestamp": "0x694704e4",
          "transactionHash": "0x0571cff932e60781698b89be9cbcdbcefcf106b5a2057309ea7653090b7920b6",
          "transactionIndex": "0x46",
          "logIndex": "0x13c",
          "removed": false
        },
        {
          "address": "0x69ec52139fb0d71b6bc30f8a64a888a476b7801e",
          "topics": [
            "0xdcbc1c05240f31ff3ad067ef1ee35ce4997762752e3a095284754544f4c709d7",
            "0x0000000000000000000000001ac98da771407df719091b94f00a3f5e85a3a7ba",
            "0x0000000000000000000000001ac98da771407df719091b94f00a3f5e85a3a7ba"
          ],
          "data": "0x00000000000000000000000000000000000000000000000000000000009896800000000000000000000000000000000000000000000000000000000000989680",
          "blockHash": "0xe72191bb87134ecc68dd5cf42b95a7808e361f6a3fb8d668ea0ce07bcac1be22",
          "blockNumber": "0x96c899",
          "blockTimestamp": "0x694704e4",
          "transactionHash": "0x0571cff932e60781698b89be9cbcdbcefcf106b5a2057309ea7653090b7920b6",
          "transactionIndex": "0x46",
          "logIndex": "0x13d",
          "removed": false
        }
      ],
      "logsBloom": "0x00000000000000000000000200000000000000000000000000000000400200030200400000000000000000000000010000000000000000000020000020a04010000000400000000000002008000000002100000000000800000000080000000000000800420000001000000002000800000200000004002000000010400000000000000000100000080000000000000000000000000000000000000000200000020000000000000000000000000000000008000000000000200000004000000000000002000000000000000000000000900000001108000080000080000020002010000000000000000010000401000000000800000000000000000000000000",
      "type": "0x2",
      "transactionHash": "0x0571cff932e60781698b89be9cbcdbcefcf106b5a2057309ea7653090b7920b6",
      "transactionIndex": "0x46",
      "blockHash": "0xe72191bb87134ecc68dd5cf42b95a7808e361f6a3fb8d668ea0ce07bcac1be22",
      "blockNumber": "0x96c899",
      "gasUsed": "0xa7002",
      "effectiveGasPrice": "0xf424a",
      "from": "0x1ac98da771407df719091b94f00a3f5e85a3a7ba",
      "to": "0x69ec52139fb0d71b6bc30f8a64a888a476b7801e",
      "contractAddress": null
    },
    {
      "status": "0x1",
      "cumulativeGasUsed": "0xb1dd0a",
      "logs": [
        {
          "address": "0x5591d1125e729fb241d8181a246de6776e5fd918",
          "topics": [
            "0xe3aa28e745d47045c02dc2eaff2b8b2dd79453689dd0c09b7bad5ba40a977da1"
          ],
          "data": "0x00000000000000000000000000000000000000000000000000000000000000000000000000000000000000000000000000000000000000000000000000000000000000000000000000000000000000000000000000000000000000000000000000000000000000000000000000000000000000000000000000000000000014310000000000000000000000000000000000000000000000000000000000000001",
          "blockHash": "0xe72191bb87134ecc68dd5cf42b95a7808e361f6a3fb8d668ea0ce07bcac1be22",
          "blockNumber": "0x96c899",
          "blockTimestamp": "0x694704e4",
          "transactionHash": "0xd2e25377ff821a6ccc992c80bcc97821a90f20f428974a0a153244e3c5b6dda0",
          "transactionIndex": "0x47",
          "logIndex": "0x13e",
          "removed": false
        }
      ],
      "logsBloom": "0x00000000000000000000000000000000000040000000000000000000000000000000000000000000000000000000000000000000000000000000000000000000000000000000000000000000000000000000000000000000000000000000000000000000000000000000000000000000000000000000000000000000000000000001000000000000000000000000000000000000000000000000000040000000000000000000000000000000000200000000000000000000000000000000000000000000000000000000000000000000000000000010000000000000000000000000000000000000000000000000000000000000000000000000001000000000",
      "type": "0x2",
      "transactionHash": "0xd2e25377ff821a6ccc992c80bcc97821a90f20f428974a0a153244e3c5b6dda0",
      "transactionIndex": "0x47",
      "blockHash": "0xe72191bb87134ecc68dd5cf42b95a7808e361f6a3fb8d668ea0ce07bcac1be22",
      "blockNumber": "0x96c899",
      "gasUsed": "0x72988",
      "effectiveGasPrice": "0xf424a",
      "from": "0x1ac98da771407df719091b94f00a3f5e85a3a7ba",
      "to": "0x5591d1125e729fb241d8181a246de6776e5fd918",
      "contractAddress": null
    }
  ],
  "libraries": [],
  "pending": [],
  "returns": {},
  "timestamp": 1766261988893,
  "chain": 11155111,
  "commit": "74f2fe0"
}