{
  "transactions": [
    {
      "hash": "0x4ac3db791359bb79ebb6a6d7e8be285c393e2801065bae167afcae486de7df65",
      "transactionType": "CALL",
      "contractName": null,
      "contractAddress": "0x1c7d4b196cb0c7b01d743fbc6116a902379c7238",
      "function": "approve(address,uint256)",
      "arguments": [
        "0x91Df8Fb96D0C6db050cd215A6e883B8233F41f2B",
        "5000000"
      ],
      "transaction": {
        "from": "0x1ac98da771407df719091b94f00a3f5e85a3a7ba",
        "to": "0x1c7d4b196cb0c7b01d743fbc6116a902379c7238",
        "gas": "0x12b1b",
        "value": "0x0",
        "input": "0x095ea7b300000000000000000000000091df8fb96d0c6db050cd215a6e883b8233f41f2b00000000000000000000000000000000000000000000000000000000004c4b40",
        "nonce": "0x38",
        "chainId": "0xaa36a7"
      },
      "additionalContracts": [],
      "isFixedGasLimit": false
    },
    {
      "hash": "0xb2e1262d360bd650418439690b43eaa7ba367b876a475cd3ad5a87e883a54493",
      "transactionType": "CALL",
      "contractName": "PredatorVault",
      "contractAddress": "0x91df8fb96d0c6db050cd215a6e883b8233f41f2b",
      "function": "deposit(uint256,address)",
      "arguments": [
        "5000000",
        "0x1AC98Da771407df719091b94f00a3F5e85a3A7bA"
      ],
      "transaction": {
        "from": "0x1ac98da771407df719091b94f00a3f5e85a3a7ba",
        "to": "0x91df8fb96d0c6db050cd215a6e883b8233f41f2b",
        "gas": "0xe6abd",
        "value": "0x0",
        "input": "0x6e553f6500000000000000000000000000000000000000000000000000000000004c4b400000000000000000000000001ac98da771407df719091b94f00a3f5e85a3a7ba",
        "nonce": "0x39",
        "chainId": "0xaa36a7"
      },
      "additionalContracts": [],
      "isFixedGasLimit": false
    }
  ],
  "receipts": [
    {
      "status": "0x1",
      "cumulativeGasUsed": "0x1591675",
      "logs": [
        {
          "address": "0x1c7d4b196cb0c7b01d743fbc6116a902379c7238",
          "topics": [
            "0x8c5be1e5ebec7d5bd14f71427d1e84f3dd0314c0f7b2291e5b200ac8c7c3b925",
            "0x0000000000000000000000001ac98da771407df719091b94f00a3f5e85a3a7ba",
            "0x00000000000000000000000091df8fb96d0c6db050cd215a6e883b8233f41f2b"
          ],
          "data": "0x00000000000000000000000000000000000000000000000000000000004c4b40",
          "blockHash": "0x75b164c3c39e209a254dade9915f8fcc1ef9ddbecefbb3fa54de83a2799ddbee",
          "blockNumber": "0x970ab8",
          "blockTimestamp": "0x694a763c",
          "transactionHash": "0x4ac3db791359bb79ebb6a6d7e8be285c393e2801065bae167afcae486de7df65",
          "transactionIndex": "0x55",
          "logIndex": "0x194",
          "removed": false
        }
      ],
      "logsBloom": "0x00000000000000000000000000000000000000000000000000000000000200000000000000000000000000000000000000000000000000000000000000200000000000000000000000000000000000000000000000000000000200000000000000000000000000001000000000000000000000000000000000000000400000000000000000100000000000000000000000000000000000000000000000000000020000000000000000000000002001000000000000000000000000000000000000000000000000000000000000000000000000001000000000000000000000000010000000000000000010000000000000000000000000000000000000000000",
      "type": "0x2",
      "transactionHash": "0x4ac3db791359bb79ebb6a6d7e8be285c393e2801065bae167afcae486de7df65",
      "transactionIndex": "0x55",
      "blockHash": "0x75b164c3c39e209a254dade9915f8fcc1ef9ddbecefbb3fa54de83a2799ddbee",
      "blockNumber": "0x970ab8",
      "gasUsed": "0xd88d",
      "effectiveGasPrice": "0x14357b7",
      "from": "0x1ac98da771407df719091b94f00a3f5e85a3a7ba",
      "to": "0x1c7d4b196cb0c7b01d743fbc6116a902379c7238",
      "contractAddress": null
    },
    {
      "status": "0x1",
      "cumulativeGasUsed": "0x163867d",
      "logs": [
        {
          "address": "0x1c7d4b196cb0c7b01d743fbc6116a902379c7238",
          "topics": [
            "0xddf252ad1be2c89b69c2b068fc378daa952ba7f163c4a11628f55a4df523b3ef",
            "0x0000000000000000000000001ac98da771407df719091b94f00a3f5e85a3a7ba",
            "0x00000000000000000000000091df8fb96d0c6db050cd215a6e883b8233f41f2b"
          ],
          "data": "0x00000000000000000000000000000000000000000000000000000000004c4b40",
          "blockHash": "0x75b164c3c39e209a254dade9915f8fcc1ef9ddbecefbb3fa54de83a2799ddbee",
          "blockNumber": "0x970ab8",
          "blockTimestamp": "0x694a763c",
          "transactionHash": "0xb2e1262d360bd650418439690b43eaa7ba367b876a475cd3ad5a87e883a54493",
          "transactionIndex": "0x56",
          "logIndex": "0x195",
          "removed": false
        },
        {
          "address": "0x91df8fb96d0c6db050cd215a6e883b8233f41f2b",
          "topics": [
            "0xddf252ad1be2c89b69c2b068fc378daa952ba7f163c4a11628f55a4df523b3ef",
            "0x0000000000000000000000000000000000000000000000000000000000000000",
            "0x0000000000000000000000001ac98da771407df719091b94f00a3f5e85a3a7ba"
          ],
          "data": "0x00000000000000000000000000000000000000000000000000000000004c4b40",
          "blockHash": "0x75b164c3c39e209a254dade9915f8fcc1ef9ddbecefbb3fa54de83a2799ddbee",
          "blockNumber": "0x970ab8",
          "blockTimestamp": "0x694a763c",
          "transactionHash": "0xb2e1262d360bd650418439690b43eaa7ba367b876a475cd3ad5a87e883a54493",
          "transactionIndex": "0x56",
          "logIndex": "0x196",
          "removed": false
        },
        {
          "address": "0x1c7d4b196cb0c7b01d743fbc6116a902379c7238",
          "topics": [
            "0x8c5be1e5ebec7d5bd14f71427d1e84f3dd0314c0f7b2291e5b200ac8c7c3b925",
            "0x00000000000000000000000091df8fb96d0c6db050cd215a6e883b8233f41f2b",
            "0x0000000000000000000000004b6907795c906fcd9e8bffc4e674ded272feba3a"
          ],
          "data": "0x00000000000000000000000000000000000000000000000000000000004c4b40",
          "blockHash": "0x75b164c3c39e209a254dade9915f8fcc1ef9ddbecefbb3fa54de83a2799ddbee",
          "blockNumber": "0x970ab8",
          "blockTimestamp": "0x694a763c",
          "transactionHash": "0xb2e1262d360bd650418439690b43eaa7ba367b876a475cd3ad5a87e883a54493",
          "transactionIndex": "0x56",
          "logIndex": "0x197",
          "removed": false
        },
        {
          "address": "0x1c7d4b196cb0c7b01d743fbc6116a902379c7238",
          "topics": [
            "0xddf252ad1be2c89b69c2b068fc378daa952ba7f163c4a11628f55a4df523b3ef",
            "0x00000000000000000000000091df8fb96d0c6db050cd215a6e883b8233f41f2b",
            "0x0000000000000000000000004b6907795c906fcd9e8bffc4e674ded272feba3a"
          ],
          "data": "0x000000000000000000000000000000000000000000000000000000000013f9d9",
          "blockHash": "0x75b164c3c39e209a254dade9915f8fcc1ef9ddbecefbb3fa54de83a2799ddbee",
          "blockNumber": "0x970ab8",
          "blockTimestamp": "0x694a763c",
          "transactionHash": "0xb2e1262d360bd650418439690b43eaa7ba367b876a475cd3ad5a87e883a54493",
          "transactionIndex": "0x56",
          "logIndex": "0x198",
          "removed": false
        },
        {
          "address": "0x1c7d4b196cb0c7b01d743fbc6116a902379c7238",
          "topics": [
            "0x8c5be1e5ebec7d5bd14f71427d1e84f3dd0314c0f7b2291e5b200ac8c7c3b925",
            "0x0000000000000000000000004b6907795c906fcd9e8bffc4e674ded272feba3a",
            "0x0000000000000000000000009a1fc3ff25083f33373bbf9617e12892ff19e07a"
          ],
          "data": "0x000000000000000000000000000000000000000000000000000000000013f9d9",
          "blockHash": "0x75b164c3c39e209a254dade9915f8fcc1ef9ddbecefbb3fa54de83a2799ddbee",
          "blockNumber": "0x970ab8",
          "blockTimestamp": "0x694a763c",
          "transactionHash": "0xb2e1262d360bd650418439690b43eaa7ba367b876a475cd3ad5a87e883a54493",
          "transactionIndex": "0x56",
          "logIndex": "0x199",
          "removed": false
        },
        {
          "address": "0x1c7d4b196cb0c7b01d743fbc6116a902379c7238",
          "topics": [
            "0xddf252ad1be2c89b69c2b068fc378daa952ba7f163c4a11628f55a4df523b3ef",
            "0x0000000000000000000000004b6907795c906fcd9e8bffc4e674ded272feba3a",
            "0x0000000000000000000000009a1fc3ff25083f33373bbf9617e12892ff19e07a"
          ],
          "data": "0x000000000000000000000000000000000000000000000000000000000013f9d9",
          "blockHash": "0x75b164c3c39e209a254dade9915f8fcc1ef9ddbecefbb3fa54de83a2799ddbee",
          "blockNumber": "0x970ab8",
          "blockTimestamp": "0x694a763c",
          "transactionHash": "0xb2e1262d360bd650418439690b43eaa7ba367b876a475cd3ad5a87e883a54493",
          "transactionIndex": "0x56",
          "logIndex": "0x19a",
          "removed": false
        },
        {
          "address": "0x1c7d4b196cb0c7b01d743fbc6116a902379c7238",
          "topics": [
            "0x8c5be1e5ebec7d5bd14f71427d1e84f3dd0314c0f7b2291e5b200ac8c7c3b925",
            "0x0000000000000000000000009a1fc3ff25083f33373bbf9617e12892ff19e07a",
            "0x000000000000000000000000d011ee229e7459ba1ddd22631ef7bf528d424a14"
          ],
          "data": "0x000000000000000000000000000000000000000000000000000000000013f9d9",
          "blockHash": "0x75b164c3c39e209a254dade9915f8fcc1ef9ddbecefbb3fa54de83a2799ddbee",
          "blockNumber": "0x970ab8",
          "blockTimestamp": "0x694a763c",
          "transactionHash": "0xb2e1262d360bd650418439690b43eaa7ba367b876a475cd3ad5a87e883a54493",
          "transactionIndex": "0x56",
          "logIndex": "0x19b",
          "removed": false
        },
        {
          "address": "0x8c5ddcd3f601c91d1bf51c8ec26066010acaba7c",
          "topics": [
            "0x7120161a7b3d31251e01294ab351ef15a41b91659a36032e4641bb89b121e321",
            "0xffd695adfd08031184633c49ce9296a58ddbddd0d5fed1e65fbe83a0ba43a5dd"
          ],
          "data": "0x00000000000000000000000000000000000000000000000000000000008ade0f0000000000000000000000000000000000000000000000000000000001e3da5f",
          "blockHash": "0x75b164c3c39e209a254dade9915f8fcc1ef9ddbecefbb3fa54de83a2799ddbee",
          "blockNumber": "0x970ab8",
          "blockTimestamp": "0x694a763c",
          "transactionHash": "0xb2e1262d360bd650418439690b43eaa7ba367b876a475cd3ad5a87e883a54493",
          "transactionIndex": "0x56",
          "logIndex": "0x19c",
          "removed": false
        },
        {
          "address": "0xd011ee229e7459ba1ddd22631ef7bf528d424a14",
          "topics": [
            "0x9d9bd501d0657d7dfe415f779a620a62b78bc508ddc0891fbbd8b7ac0f8fce87",
            "0xffd695adfd08031184633c49ce9296a58ddbddd0d5fed1e65fbe83a0ba43a5dd"
          ],
          "data": "0x00000000000000000000000000000000000000000000000000000000008ade0f00000000000000000000000000000000000000000000000000000000000000a30000000000000000000000000000000000000000000000000000000000000000",
          "blockHash": "0x75b164c3c39e209a254dade9915f8fcc1ef9ddbecefbb3fa54de83a2799ddbee",
          "blockNumber": "0x970ab8",
          "blockTimestamp": "0x694a763c",
          "transactionHash": "0xb2e1262d360bd650418439690b43eaa7ba367b876a475cd3ad5a87e883a54493",
          "transactionIndex": "0x56",
          "logIndex": "0x19d",
          "removed": false
        },
        {
          "address": "0xd011ee229e7459ba1ddd22631ef7bf528d424a14",
          "topics": [
            "0x52acb05cebbd3cd39715469f22afbf5a17496295ef3bc9bb5944056c63ccaa09",
            "0xffd695adfd08031184633c49ce9296a58ddbddd0d5fed1e65fbe83a0ba43a5dd",
            "0x0000000000000000000000009a1fc3ff25083f33373bbf9617e12892ff19e07a",
            "0x0000000000000000000000009a1fc3ff25083f33373bbf9617e12892ff19e07a"
          ],
          "data": "0x000000000000000000000000000000000000000000000000000000000013f9d900000000000000000000000000000000000000000000000000000130b6fed1cf",
          "blockHash": "0x75b164c3c39e209a254dade9915f8fcc1ef9ddbecefbb3fa54de83a2799ddbee",
          "blockNumber": "0x970ab8",
          "blockTimestamp": "0x694a763c",
          "transactionHash": "0xb2e1262d360bd650418439690b43eaa7ba367b876a475cd3ad5a87e883a54493",
          "transactionIndex": "0x56",
          "logIndex": "0x19e",
          "removed": false
        },
        {
          "address": "0x1c7d4b196cb0c7b01d743fbc6116a902379c7238",
          "topics": [
            "0xddf252ad1be2c89b69c2b068fc378daa952ba7f163c4a11628f55a4df523b3ef",
            "0x0000000000000000000000009a1fc3ff25083f33373bbf9617e12892ff19e07a",
            "0x000000000000000000000000d011ee229e7459ba1ddd22631ef7bf528d424a14"
          ],
          "data": "0x000000000000000000000000000000000000000000000000000000000013f9d9",
          "blockHash": "0x75b164c3c39e209a254dade9915f8fcc1ef9ddbecefbb3fa54de83a2799ddbee",
          "blockNumber": "0x970ab8",
          "blockTimestamp": "0x694a763c",
          "transactionHash": "0xb2e1262d360bd650418439690b43eaa7ba367b876a475cd3ad5a87e883a54493",
          "transactionIndex": "0x56",
          "logIndex": "0x19f",
          "removed": false
        },
        {
          "address": "0x9a1fc3ff25083f33373bbf9617e12892ff19e07a",
          "topics": [
            "0xdcbc1c05240f31ff3ad067ef1ee35ce4997762752e3a095284754544f4c709d7",
            "0x0000000000000000000000004b6907795c906fcd9e8bffc4e674ded272feba3a",
            "0x0000000000000000000000004b6907795c906fcd9e8bffc4e674ded272feba3a"
          ],
          "data": "0x000000000000000000000000000000000000000000000000000000000013f9d900000000000000000000000000000000000000000000000000000000006520dc",
          "blockHash": "0x75b164c3c39e209a254dade9915f8fcc1ef9ddbecefbb3fa54de83a2799ddbee",
          "blockNumber": "0x970ab8",
          "blockTimestamp": "0x694a763c",
          "transactionHash": "0xb2e1262d360bd650418439690b43eaa7ba367b876a475cd3ad5a87e883a54493",
          "transactionIndex": "0x56",
          "logIndex": "0x1a0",
          "removed": false
        },
        {
          "address": "0x9a1fc3ff25083f33373bbf9617e12892ff19e07a",
          "topics": [
            "0xddf252ad1be2c89b69c2b068fc378daa952ba7f163c4a11628f55a4df523b3ef",
            "0x0000000000000000000000000000000000000000000000000000000000000000",
            "0x0000000000000000000000004b6907795c906fcd9e8bffc4e674ded272feba3a"
          ],
          "data": "0x00000000000000000000000000000000000000000000000000000000006520dc",
          "blockHash": "0x75b164c3c39e209a254dade9915f8fcc1ef9ddbecefbb3fa54de83a2799ddbee",
          "blockNumber": "0x970ab8",
          "blockTimestamp": "0x694a763c",
          "transactionHash": "0xb2e1262d360bd650418439690b43eaa7ba367b876a475cd3ad5a87e883a54493",
          "transactionIndex": "0x56",
          "logIndex": "0x1a1",
          "removed": false
        },
        {
          "address": "0x91df8fb96d0c6db050cd215a6e883b8233f41f2b",
          "topics": [
            "0xdcbc1c05240f31ff3ad067ef1ee35ce4997762752e3a095284754544f4c709d7",
            "0x0000000000000000000000001ac98da771407df719091b94f00a3f5e85a3a7ba",
            "0x0000000000000000000000001ac98da771407df719091b94f00a3f5e85a3a7ba"
          ],
          "data": "0x00000000000000000000000000000000000000000000000000000000004c4b4000000000000000000000000000000000000000000000000000000000004c4b40",
          "blockHash": "0x75b164c3c39e209a254dade9915f8fcc1ef9ddbecefbb3fa54de83a2799ddbee",
          "blockNumber": "0x970ab8",
          "blockTimestamp": "0x694a763c",
          "transactionHash": "0xb2e1262d360bd650418439690b43eaa7ba367b876a475cd3ad5a87e883a54493",
          "transactionIndex": "0x56",
          "logIndex": "0x1a2",
          "removed": false
        }
      ],
      "logsBloom": "0x00000000000000000000000000000000000000000000000000000000000200030200400000000000004000000000010000000000000000000020000020a04000000000400000000000002008000000002000000000000000000200080000000000000800020000001000000002000800000200000004002000000010400000000200000000100000080000000000004000000000000000000000000000000000020000000000000000000000002001000008000000000000200000004000000080000002000000000000000000000000900000003008000080000080000020002010000000000000000010000001000008000800000000000000000000000000",
      "type": "0x2",
      "transactionHash": "0xb2e1262d360bd650418439690b43eaa7ba367b876a475cd3ad5a87e883a54493",
      "transactionIndex": "0x56",
      "blockHash": "0x75b164c3c39e209a254dade9915f8fcc1ef9ddbecefbb3fa54de83a2799ddbee",
      "blockNumber": "0x970ab8",
      "gasUsed": "0xa7008",
      "effectiveGasPrice": "0x14357b7",
      "from": "0x1ac98da771407df719091b94f00a3f5e85a3a7ba",
      "to": "0x91df8fb96d0c6db050cd215a6e883b8233f41f2b",
      "contractAddress": null
    }
  ],
  "libraries": [],
  "pending": [],
  "returns": {},
  "timestamp": 1766487613158,
  "chain": 11155111,
  "commit": "9271eed"
}